{
  "_format": "hh-sol-artifact-1",
  "contractName": "SubscriptionNFT",
  "sourceName": "contracts/SubscriptionNFT.sol",
  "abi": [
    {
      "inputs": [],
      "stateMutability": "nonpayable",
      "type": "constructor"
    },
    {
      "inputs": [
        {
          "internalType": "address",
          "name": "sender",
          "type": "address"
        },
        {
          "internalType": "uint256",
          "name": "tokenId",
          "type": "uint256"
        },
        {
          "internalType": "address",
          "name": "owner",
          "type": "address"
        }
      ],
      "name": "ERC721IncorrectOwner",
      "type": "error"
    },
    {
      "inputs": [
        {
          "internalType": "address",
          "name": "operator",
          "type": "address"
        },
        {
          "internalType": "uint256",
          "name": "tokenId",
          "type": "uint256"
        }
      ],
      "name": "ERC721InsufficientApproval",
      "type": "error"
    },
    {
      "inputs": [
        {
          "internalType": "address",
          "name": "approver",
          "type": "address"
        }
      ],
      "name": "ERC721InvalidApprover",
      "type": "error"
    },
    {
      "inputs": [
        {
          "internalType": "address",
          "name": "operator",
          "type": "address"
        }
      ],
      "name": "ERC721InvalidOperator",
      "type": "error"
    },
    {
      "inputs": [
        {
          "internalType": "address",
          "name": "owner",
          "type": "address"
        }
      ],
      "name": "ERC721InvalidOwner",
      "type": "error"
    },
    {
      "inputs": [
        {
          "internalType": "address",
          "name": "receiver",
          "type": "address"
        }
      ],
      "name": "ERC721InvalidReceiver",
      "type": "error"
    },
    {
      "inputs": [
        {
          "internalType": "address",
          "name": "sender",
          "type": "address"
        }
      ],
      "name": "ERC721InvalidSender",
      "type": "error"
    },
    {
      "inputs": [
        {
          "internalType": "uint256",
          "name": "tokenId",
          "type": "uint256"
        }
      ],
      "name": "ERC721NonexistentToken",
      "type": "error"
    },
    {
      "inputs": [
        {
          "internalType": "address",
          "name": "owner",
          "type": "address"
        }
      ],
      "name": "OwnableInvalidOwner",
      "type": "error"
    },
    {
      "inputs": [
        {
          "internalType": "address",
          "name": "account",
          "type": "address"
        }
      ],
      "name": "OwnableUnauthorizedAccount",
      "type": "error"
    },
    {
      "anonymous": false,
      "inputs": [
        {
          "indexed": true,
          "internalType": "address",
          "name": "owner",
          "type": "address"
        },
        {
          "indexed": true,
          "internalType": "address",
          "name": "approved",
          "type": "address"
        },
        {
          "indexed": true,
          "internalType": "uint256",
          "name": "tokenId",
          "type": "uint256"
        }
      ],
      "name": "Approval",
      "type": "event"
    },
    {
      "anonymous": false,
      "inputs": [
        {
          "indexed": true,
          "internalType": "address",
          "name": "owner",
          "type": "address"
        },
        {
          "indexed": true,
          "internalType": "address",
          "name": "operator",
          "type": "address"
        },
        {
          "indexed": false,
          "internalType": "bool",
          "name": "approved",
          "type": "bool"
        }
      ],
      "name": "ApprovalForAll",
      "type": "event"
    },
    {
      "anonymous": false,
      "inputs": [
        {
          "indexed": true,
          "internalType": "address",
          "name": "previousOwner",
          "type": "address"
        },
        {
          "indexed": true,
          "internalType": "address",
          "name": "newOwner",
          "type": "address"
        }
      ],
      "name": "OwnershipTransferred",
      "type": "event"
    },
    {
      "anonymous": false,
      "inputs": [
        {
          "indexed": true,
          "internalType": "address",
          "name": "from",
          "type": "address"
        },
        {
          "indexed": true,
          "internalType": "address",
          "name": "to",
          "type": "address"
        },
        {
          "indexed": true,
          "internalType": "uint256",
          "name": "tokenId",
          "type": "uint256"
        }
      ],
      "name": "Transfer",
      "type": "event"
    },
    {
      "inputs": [],
      "name": "SUBSCRIPTION_DURATION",
      "outputs": [
        {
          "internalType": "uint256",
          "name": "",
          "type": "uint256"
        }
      ],
      "stateMutability": "view",
      "type": "function"
    },
    {
      "inputs": [
        {
          "internalType": "address",
          "name": "to",
          "type": "address"
        },
        {
          "internalType": "uint256",
          "name": "tokenId",
          "type": "uint256"
        }
      ],
      "name": "approve",
      "outputs": [],
      "stateMutability": "nonpayable",
      "type": "function"
    },
    {
      "inputs": [
        {
          "internalType": "address",
          "name": "owner",
          "type": "address"
        }
      ],
      "name": "balanceOf",
      "outputs": [
        {
          "internalType": "uint256",
          "name": "",
          "type": "uint256"
        }
      ],
      "stateMutability": "view",
      "type": "function"
    },
    {
      "inputs": [
        {
          "internalType": "uint256",
          "name": "tokenId",
          "type": "uint256"
        }
      ],
      "name": "getApproved",
      "outputs": [
        {
          "internalType": "address",
          "name": "",
          "type": "address"
        }
      ],
      "stateMutability": "view",
      "type": "function"
    },
    {
      "inputs": [
        {
          "internalType": "uint256",
          "name": "tokenId",
          "type": "uint256"
        }
      ],
      "name": "getSubscriptionExpiry",
      "outputs": [
        {
          "internalType": "uint256",
          "name": "",
          "type": "uint256"
        }
      ],
      "stateMutability": "view",
      "type": "function"
    },
    {
      "inputs": [
        {
          "internalType": "address",
          "name": "user",
          "type": "address"
        }
      ],
      "name": "getUserSubscription",
      "outputs": [
        {
          "internalType": "uint256",
          "name": "",
          "type": "uint256"
        }
      ],
      "stateMutability": "view",
      "type": "function"
    },
    {
      "inputs": [
        {
          "internalType": "address",
          "name": "owner",
          "type": "address"
        },
        {
          "internalType": "address",
          "name": "operator",
          "type": "address"
        }
      ],
      "name": "isApprovedForAll",
      "outputs": [
        {
          "internalType": "bool",
          "name": "",
          "type": "bool"
        }
      ],
      "stateMutability": "view",
      "type": "function"
    },
    {
      "inputs": [
        {
          "internalType": "uint256",
          "name": "tokenId",
          "type": "uint256"
        }
      ],
      "name": "isSubscriptionValid",
      "outputs": [
        {
          "internalType": "bool",
          "name": "",
          "type": "bool"
        }
      ],
      "stateMutability": "view",
      "type": "function"
    },
    {
      "inputs": [],
      "name": "mintSubscription",
      "outputs": [],
      "stateMutability": "payable",
      "type": "function"
    },
    {
      "inputs": [],
      "name": "name",
      "outputs": [
        {
          "internalType": "string",
          "name": "",
          "type": "string"
        }
      ],
      "stateMutability": "view",
      "type": "function"
    },
    {
      "inputs": [],
      "name": "owner",
      "outputs": [
        {
          "internalType": "address",
          "name": "",
          "type": "address"
        }
      ],
      "stateMutability": "view",
      "type": "function"
    },
    {
      "inputs": [
        {
          "internalType": "uint256",
          "name": "tokenId",
          "type": "uint256"
        }
      ],
      "name": "ownerOf",
      "outputs": [
        {
          "internalType": "address",
          "name": "",
          "type": "address"
        }
      ],
      "stateMutability": "view",
      "type": "function"
    },
    {
      "inputs": [],
      "name": "renounceOwnership",
      "outputs": [],
      "stateMutability": "nonpayable",
      "type": "function"
    },
    {
      "inputs": [
        {
          "internalType": "address",
          "name": "from",
          "type": "address"
        },
        {
          "internalType": "address",
          "name": "to",
          "type": "address"
        },
        {
          "internalType": "uint256",
          "name": "tokenId",
          "type": "uint256"
        }
      ],
      "name": "safeTransferFrom",
      "outputs": [],
      "stateMutability": "nonpayable",
      "type": "function"
    },
    {
      "inputs": [
        {
          "internalType": "address",
          "name": "from",
          "type": "address"
        },
        {
          "internalType": "address",
          "name": "to",
          "type": "address"
        },
        {
          "internalType": "uint256",
          "name": "tokenId",
          "type": "uint256"
        },
        {
          "internalType": "bytes",
          "name": "data",
          "type": "bytes"
        }
      ],
      "name": "safeTransferFrom",
      "outputs": [],
      "stateMutability": "nonpayable",
      "type": "function"
    },
    {
      "inputs": [
        {
          "internalType": "address",
          "name": "operator",
          "type": "address"
        },
        {
          "internalType": "bool",
          "name": "approved",
          "type": "bool"
        }
      ],
      "name": "setApprovalForAll",
      "outputs": [],
      "stateMutability": "nonpayable",
      "type": "function"
    },
    {
      "inputs": [],
      "name": "subscriptionPrice",
      "outputs": [
        {
          "internalType": "uint256",
          "name": "",
          "type": "uint256"
        }
      ],
      "stateMutability": "view",
      "type": "function"
    },
    {
      "inputs": [
        {
          "internalType": "bytes4",
          "name": "interfaceId",
          "type": "bytes4"
        }
      ],
      "name": "supportsInterface",
      "outputs": [
        {
          "internalType": "bool",
          "name": "",
          "type": "bool"
        }
      ],
      "stateMutability": "view",
      "type": "function"
    },
    {
      "inputs": [],
      "name": "symbol",
      "outputs": [
        {
          "internalType": "string",
          "name": "",
          "type": "string"
        }
      ],
      "stateMutability": "view",
      "type": "function"
    },
    {
      "inputs": [
        {
          "internalType": "uint256",
          "name": "",
          "type": "uint256"
        }
      ],
      "name": "tokenExpiry",
      "outputs": [
        {
          "internalType": "uint256",
          "name": "",
          "type": "uint256"
        }
      ],
      "stateMutability": "view",
      "type": "function"
    },
    {
      "inputs": [
        {
          "internalType": "uint256",
          "name": "tokenId",
          "type": "uint256"
        }
      ],
      "name": "tokenURI",
      "outputs": [
        {
          "internalType": "string",
          "name": "",
          "type": "string"
        }
      ],
      "stateMutability": "view",
      "type": "function"
    },
    {
      "inputs": [
        {
          "internalType": "address",
          "name": "from",
          "type": "address"
        },
        {
          "internalType": "address",
          "name": "to",
          "type": "address"
        },
        {
          "internalType": "uint256",
          "name": "tokenId",
          "type": "uint256"
        }
      ],
      "name": "transferFrom",
      "outputs": [],
      "stateMutability": "nonpayable",
      "type": "function"
    },
    {
      "inputs": [
        {
          "internalType": "address",
          "name": "newOwner",
          "type": "address"
        }
      ],
      "name": "transferOwnership",
      "outputs": [],
      "stateMutability": "nonpayable",
      "type": "function"
    },
    {
      "inputs": [],
      "name": "withdrawFees",
      "outputs": [],
      "stateMutability": "nonpayable",
      "type": "function"
    }
  ],
  "bytecode": "0x60806040526001600755655af3107a40006009553480156200002057600080fd5b50336040518060400160405280601481526020017f4461746156697a20537562736372697074696f6e00000000000000000000000081525060405180604001604052806005815260200164222b29aaa160d91b8152508160009081620000879190620001d1565b506001620000968282620001d1565b5050506001600160a01b038116620000c857604051631e4fbdf760e01b81526000600482015260240160405180910390fd5b620000d381620000da565b506200029d565b600680546001600160a01b038381166001600160a01b0319831681179093556040519116919082907f8be0079c531659141344cd1fd0a4f28419497f9722a3daafe3b4186f6b6457e090600090a35050565b634e487b7160e01b600052604160045260246000fd5b600181811c908216806200015757607f821691505b6020821081036200017857634e487b7160e01b600052602260045260246000fd5b50919050565b601f821115620001cc57600081815260208120601f850160051c81016020861015620001a75750805b601f850160051c820191505b81811015620001c857828155600101620001b3565b5050505b505050565b81516001600160401b03811115620001ed57620001ed6200012c565b6200020581620001fe845462000142565b846200017e565b602080601f8311600181146200023d5760008415620002245750858301515b600019600386901b1c1916600185901b178555620001c8565b600085815260208120601f198616915b828110156200026e578886015182559484019460019091019084016200024d565b50858210156200028d5787850151600019600388901b60f8161c191681555b5050505050600190811b01905550565b61155d80620002ad6000396000f3fe60806040526004361061014b5760003560e01c806395d89b41116100b6578063c87b56dd1161006f578063c87b56dd146103cb578063e985e9c5146103eb578063ebbeec081461040b578063f2fde38b1461042b578063f6847c821461044b578063fd01f4621461046257600080fd5b806395d89b4114610306578063a0e26db91461031b578063a22cb46514610348578063acced42614610368578063b88d4fde14610395578063bdc8e54c146103b557600080fd5b8063476343ee11610108578063476343ee146102415780636352211e1461025657806370a0823114610276578063715018a6146102a45780638da5cb5b146102b9578063954689ca146102d757600080fd5b806301ffc9a71461015057806306fdde0314610185578063081812fc146101a7578063095ea7b3146101df57806323b872dd1461020157806342842e0e14610221575b600080fd5b34801561015c57600080fd5b5061017061016b366004611158565b61046a565b60405190151581526020015b60405180910390f35b34801561019157600080fd5b5061019a6104bc565b60405161017c91906111c5565b3480156101b357600080fd5b506101c76101c23660046111d8565b61054e565b6040516001600160a01b03909116815260200161017c565b3480156101eb57600080fd5b506101ff6101fa366004611206565b610577565b005b34801561020d57600080fd5b506101ff61021c366004611232565b610586565b34801561022d57600080fd5b506101ff61023c366004611232565b610616565b34801561024d57600080fd5b506101ff610636565b34801561026257600080fd5b506101c76102713660046111d8565b6106bc565b34801561028257600080fd5b50610296610291366004611273565b6106c7565b60405190815260200161017c565b3480156102b057600080fd5b506101ff61070f565b3480156102c557600080fd5b506006546001600160a01b03166101c7565b3480156102e357600080fd5b506101706102f23660046111d8565b600090815260086020526040902054421090565b34801561031257600080fd5b5061019a610723565b34801561032757600080fd5b506102966103363660046111d8565b60009081526008602052604090205490565b34801561035457600080fd5b506101ff610363366004611290565b610732565b34801561037457600080fd5b506102966103833660046111d8565b60086020526000908152604090205481565b3480156103a157600080fd5b506101ff6103b03660046112e4565b61073d565b3480156103c157600080fd5b5061029660095481565b3480156103d757600080fd5b5061019a6103e63660046111d8565b610755565b3480156103f757600080fd5b506101706104063660046113c4565b6107ca565b34801561041757600080fd5b50610296610426366004611273565b6107f8565b34801561043757600080fd5b506101ff610446366004611273565b6108da565b34801561045757600080fd5b5061029662278d0081565b6101ff610918565b60006001600160e01b031982166380ac58cd60e01b148061049b57506001600160e01b03198216635b5e139f60e01b145b806104b657506301ffc9a760e01b6001600160e01b03198316145b92915050565b6060600080546104cb906113f2565b80601f01602080910402602001604051908101604052809291908181526020018280546104f7906113f2565b80156105445780601f1061051957610100808354040283529160200191610544565b820191906000526020600020905b81548152906001019060200180831161052757829003601f168201915b5050505050905090565b6000610559826109e8565b506000828152600460205260409020546001600160a01b03166104b6565b610582828233610a21565b5050565b6001600160a01b0382166105b557604051633250574960e11b8152600060048201526024015b60405180910390fd5b60006105c2838333610a2e565b9050836001600160a01b0316816001600160a01b031614610610576040516364283d7b60e01b81526001600160a01b03808616600483015260248201849052821660448201526064016105ac565b50505050565b6106318383836040518060200160405280600081525061073d565b505050565b61063e610b27565b47806106825760405162461bcd60e51b81526020600482015260136024820152724e6f206665657320746f20776974686472617760681b60448201526064016105ac565b6006546040516001600160a01b039091169082156108fc029083906000818181858888f19350505050158015610582573d6000803e3d6000fd5b60006104b6826109e8565b60006001600160a01b0382166106f3576040516322718ad960e21b8152600060048201526024016105ac565b506001600160a01b031660009081526003602052604090205490565b610717610b27565b6107216000610b54565b565b6060600180546104cb906113f2565b610582338383610ba6565b610748848484610586565b6106103385858585610c45565b6060610760826109e8565b50600061077860408051602081019091526000815290565b9050600081511161079857604051806020016040528060008152506107c3565b806107a284610d70565b6040516020016107b392919061142c565b6040516020818303038152906040525b9392505050565b6001600160a01b03918216600090815260056020908152604080832093909416825291909152205460ff1690565b600080610804836106c7565b9050806000036108175750600092915050565b60015b6007548110156108d0576040516331a9108f60e11b8152600481018290523090636352211e90602401602060405180830381865afa92505050801561087c575060408051601f3d908101601f191682019092526108799181019061145b565b60015b156108be57846001600160a01b0316816001600160a01b03161480156108af575060008281526008602052604090205442105b156108bc57509392505050565b505b806108c88161148e565b91505061081a565b5060009392505050565b6108e2610b27565b6001600160a01b03811661090c57604051631e4fbdf760e01b8152600060048201526024016105ac565b61091581610b54565b50565b6009543410156109615760405162461bcd60e51b8152602060048201526014602482015273125b9cdd59999a58da595b9d081c185e5b595b9d60621b60448201526064016105ac565b6009543411156109a85760095433906108fc9061097e90346114a7565b6040518115909202916000818181858888f193505050501580156109a6573d6000803e3d6000fd5b505b60078054600091826109b98361148e565b9190505590506109c93382610e03565b6109d662278d00426114ba565b60009182526008602052604090912055565b6000818152600260205260408120546001600160a01b0316806104b657604051637e27328960e01b8152600481018490526024016105ac565b6106318383836001610e1d565b6000828152600260205260408120546001600160a01b0390811690831615610a5b57610a5b818486610f23565b6001600160a01b03811615610a9957610a78600085600080610e1d565b6001600160a01b038116600090815260036020526040902080546000190190555b6001600160a01b03851615610ac8576001600160a01b0385166000908152600360205260409020805460010190555b60008481526002602052604080822080546001600160a01b0319166001600160a01b0389811691821790925591518793918516917fddf252ad1be2c89b69c2b068fc378daa952ba7f163c4a11628f55a4df523b3ef91a4949350505050565b6006546001600160a01b031633146107215760405163118cdaa760e01b81523360048201526024016105ac565b600680546001600160a01b038381166001600160a01b0319831681179093556040519116919082907f8be0079c531659141344cd1fd0a4f28419497f9722a3daafe3b4186f6b6457e090600090a35050565b6001600160a01b038216610bd857604051630b61174360e31b81526001600160a01b03831660048201526024016105ac565b6001600160a01b03838116600081815260056020908152604080832094871680845294825291829020805460ff191686151590811790915591519182527f17307eab39ab6107e8899845ad3d59bd9653f200f220920489ca2b5937696c31910160405180910390a3505050565b6001600160a01b0383163b15610d6957604051630a85bd0160e11b81526001600160a01b0384169063150b7a0290610c879088908890879087906004016114cd565b6020604051808303816000875af1925050508015610cc2575060408051601f3d908101601f19168201909252610cbf9181019061150a565b60015b610d2b573d808015610cf0576040519150601f19603f3d011682016040523d82523d6000602084013e610cf5565b606091505b508051600003610d2357604051633250574960e11b81526001600160a01b03851660048201526024016105ac565b805181602001fd5b6001600160e01b03198116630a85bd0160e11b14610d6757604051633250574960e11b81526001600160a01b03851660048201526024016105ac565b505b5050505050565b60606000610d7d83610f87565b600101905060008167ffffffffffffffff811115610d9d57610d9d6112ce565b6040519080825280601f01601f191660200182016040528015610dc7576020820181803683370190505b5090508181016020015b600019016f181899199a1a9b1b9c1cb0b131b232b360811b600a86061a8153600a8504945084610dd157509392505050565b61058282826040518060200160405280600081525061105f565b8080610e3157506001600160a01b03821615155b15610ef3576000610e41846109e8565b90506001600160a01b03831615801590610e6d5750826001600160a01b0316816001600160a01b031614155b8015610e805750610e7e81846107ca565b155b15610ea95760405163a9fbf51f60e01b81526001600160a01b03841660048201526024016105ac565b8115610ef15783856001600160a01b0316826001600160a01b03167f8c5be1e5ebec7d5bd14f71427d1e84f3dd0314c0f7b2291e5b200ac8c7c3b92560405160405180910390a45b505b5050600090815260046020526040902080546001600160a01b0319166001600160a01b0392909216919091179055565b610f2e838383611077565b610631576001600160a01b038316610f5c57604051637e27328960e01b8152600481018290526024016105ac565b60405163177e802f60e01b81526001600160a01b0383166004820152602481018290526044016105ac565b60008072184f03e93ff9f4daa797ed6e38ed64bf6a1f0160401b8310610fc65772184f03e93ff9f4daa797ed6e38ed64bf6a1f0160401b830492506040015b6d04ee2d6d415b85acef81000000008310610ff2576d04ee2d6d415b85acef8100000000830492506020015b662386f26fc10000831061101057662386f26fc10000830492506010015b6305f5e1008310611028576305f5e100830492506008015b612710831061103c57612710830492506004015b6064831061104e576064830492506002015b600a83106104b65760010192915050565b61106983836110dd565b610631336000858585610c45565b60006001600160a01b038316158015906110d55750826001600160a01b0316846001600160a01b031614806110b157506110b184846107ca565b806110d557506000828152600460205260409020546001600160a01b038481169116145b949350505050565b6001600160a01b03821661110757604051633250574960e11b8152600060048201526024016105ac565b600061111583836000610a2e565b90506001600160a01b03811615610631576040516339e3563760e11b8152600060048201526024016105ac565b6001600160e01b03198116811461091557600080fd5b60006020828403121561116a57600080fd5b81356107c381611142565b60005b83811015611190578181015183820152602001611178565b50506000910152565b600081518084526111b1816020860160208601611175565b601f01601f19169290920160200192915050565b6020815260006107c36020830184611199565b6000602082840312156111ea57600080fd5b5035919050565b6001600160a01b038116811461091557600080fd5b6000806040838503121561121957600080fd5b8235611224816111f1565b946020939093013593505050565b60008060006060848603121561124757600080fd5b8335611252816111f1565b92506020840135611262816111f1565b929592945050506040919091013590565b60006020828403121561128557600080fd5b81356107c3816111f1565b600080604083850312156112a357600080fd5b82356112ae816111f1565b9150602083013580151581146112c357600080fd5b809150509250929050565b634e487b7160e01b600052604160045260246000fd5b600080600080608085870312156112fa57600080fd5b8435611305816111f1565b93506020850135611315816111f1565b925060408501359150606085013567ffffffffffffffff8082111561133957600080fd5b818701915087601f83011261134d57600080fd5b81358181111561135f5761135f6112ce565b604051601f8201601f19908116603f01168101908382118183101715611387576113876112ce565b816040528281528a60208487010111156113a057600080fd5b82602086016020830137600060208483010152809550505050505092959194509250565b600080604083850312156113d757600080fd5b82356113e2816111f1565b915060208301356112c3816111f1565b600181811c9082168061140657607f821691505b60208210810361142657634e487b7160e01b600052602260045260246000fd5b50919050565b6000835161143e818460208801611175565b835190830190611452818360208801611175565b01949350505050565b60006020828403121561146d57600080fd5b81516107c3816111f1565b634e487b7160e01b600052601160045260246000fd5b6000600182016114a0576114a0611478565b5060010190565b818103818111156104b6576104b6611478565b808201808211156104b6576104b6611478565b6001600160a01b038581168252841660208201526040810183905260806060820181905260009061150090830184611199565b9695505050505050565b60006020828403121561151c57600080fd5b81516107c38161114256fea264697066735822122019413a08aa19831e09482936eec880e2bd871c4fa983da4c9b8318ddcc1b8c9364736f6c63430008140033",
  "linkReferences": {},
  "deployedLinkReferences": {}
}